:100000000C94BC080C94D7080C94D7080C94D7080F
:100010000C94D7080C94D7080C94D7080C94D708E4
:100020000C94D7080C94D7080C94E30C0C94040D92
:100030000C94D7080C94D7080C94D7080C94D708C4
:100040000C94D7080C94D7080C94D7080C94D708B4
:100050000C94D7080C94D7080C94D7080C94D708A4
:100060000C94D7080C94D7080C94D7080C94D70894
:100070000C94D7080C94D7080C94D7080C94D70884
:100080000C94D7080C94D7080C94D7080C94D70874
:100090000C94D7080C94D7080C94D7080C94D70864
:1000A0000C94D7080C94D7080C94D7080103878ABE
:1000B000560FDE3EFE5F1DB8F2664EFF7C7A764E2E
:1000C0001CB8D70D79706227CC1AB6EE3FFC7A7651
:1000D0004F1C9BB4CBF5491083848A968F7D787230
:1000E000664D1EBEDF1D99B0E2460E9EBEFE7E7EB0
:1000F0007E7E5F1DBCF2470C9AB6CF1C9BB4CBF53D
:10010000491083654812876D5832C70C9AB6CF1CC8
:10011000BAF66E5E1FBCDB34CB148B94AAB7CDF954
:10012000704304B771BCBB4D301901733FD7B900A0
:100130001096CD16D55FED6314F7616A4EB38E70DD
:100140006E799A5124B4C7CA5833EE94C12E504CDC
:10015000EC746C4BE45AF0BBB0BA3806F79BACDEDB
:1001600047C2F73EA74A339D973D899DF7288AB23B
:10017000444449AEE1F9EB36D25D43855588E8A9A0
:1001800081EAF7527DD48807DAD8CE3FE2ED6E7F60
:1001900028856FADDDF1F4236BDD7C3303B82B5C78
:1001A00033F9490E704ED8EB505B85D08172BC5844
:1001B00084DB767BA2855F7FF9F2E2276A8225B82D
:1001C0004D49B3FAB67FBFB2658370C0519DE2FF5F
:1001D0000C7CC3932C62FD87C8F4561509B5B09406
:1001E000A71C94796C00D531C2FF675B3B0F974326
:1001F000A68907198C2A9910AA47FC1E5A7CBC357F
:100200007DC49B51EA53841D7C03B0165F3A3E6661
:100210003C9DB84A6EA83E7D666AF4DD1D79D731F3
:10022000D68CEC9C7BF24532C60263C42D4099B15A
:10023000F6D5AB21649D5BF03D02D7EB3D65F7F849
:1002400003115DCC97C1F5242FBDB9857DD9DDBBE8
:10025000525FC996966D65C542ABDE944EDDDB5CA0
:10026000FB883A83CC19CAEFF560D31CC0AF37675F
:10027000A829ADAF77494747E6230E527D155AA608
:100280008E40885E0252BC15901647D549B1663B38
:10029000C7F949CEC6E447C60B6F1E7A2E31E63049
:1002A000F45301393EF42DC4D42F84AE5D7858E365
:1002B000E5AC0972902430C7540E3C9BBF6825E51D
:1002C000ECB7145E67A885BB805930C3E529D057C9
:1002D000142F9B86E40D2D5B1F23B063571ADD1D81
:1002E000EDFAD3E55B06A69EF6ECD9262B64A9E6CB
:1002F0002FBD8C5E62E44A3C2B56D94070851DD8D8
:10030000B36CDDA694AB74822BBF759FBA2DE40647
:10031000313D98720342DF25C1A1F6ACA939858130
:10032000F1A2D303B1C852892F7AB3534B458A83C4
:1003300042F210AC9B906DE1E237F6FFBF93D0C262
:10034000A6645C870D3BE733658BF67D099052769A
:100350008A2DDD7B1BC0F2071429735005D71221AB
:10036000FFCC0755C9597A3F12CF15C96BD163D954
:10037000E212E3AD7AEAA789D8A66C1EF5CDBBC020
:100380005041456A64C236DC67064D6C42A1E57196
:1003900035F24256BB3751F0D2A36FFAD2EB4FF091
:1003A000CB97DD2272715947FBBA6E5BA870320D94
:1003B00059E039F65036F2435CF489C71C6C7F244F
:1003C0003EB5C2DB1F82CE3B8DBC39DBAB708305F3
:1003D000234B59CD2A22511389A64D91B98E304015
:1003E0008CAC84D79BA36C4BA26A8A252F0927EB80
:1003F000F7F7167D4C8B7E177A43000C80B01658A9
:10040000019CF8A60E645FBFF1C46D1B472DDE2A68
:100410007A04FEE9C29EA6BF907472D6A95365F411
:1004200069D55890A88D3C3A86496FDFA733B168EB
:10043000395182DEF269AC9B9338505B195BC21470
:100440009C180E4C2FF1FAD4B65FB9B847A4EBDD77
:10045000CE468D2188C3A6AE074EBFB68C3A14BDDA
:1004600099A03449E2AD68B045CFBC2766CCEBB962
:10047000143C15B95337263A614E1E2F1F1B3354B7
:1004800087A1178CDFAA517955F2A5353863872BE0
:10049000930431540104282F0C2A346C1D393E5327
:1004A00086F2B40E481CCAB4571D4C8D966C2C991C
:1004B0001EE373DAC17D117965E1E2EFA5B87FA291
:1004C000680F8A59BEF2EE0D8F700A72E771E982E9
:1004D0000878A66C3BFF8C3A02FCCB4F949A8F773E
:1004E0001F652627AEE26B507AB828F74B7E5A6E0E
:1004F000D93D078020660A34CA66CDD2B954EA26AF
:10050000E2AD5B91611126DBDD7B055EFA2EDB96A9
:10051000CF57DCDAC3CA00015EC925E2B3463076A4
:100520003ABFBC7D2D02E141B6AA8E71581151D758
:100530000929D4DFE3E604346F7D29181306EBB4F0
:100540005AB59C7E2245237A02E6276CD96048C3BF
:10055000F6BB56B2365EBD7ED8A30DFDEA4F7DE9EF
:1005600055695CB2444DBCEE2D5B9628959DA9372C
:1005700053CE2F65D85A01D811F6CC6920572F1DBC
:100580000FE28CC757047FFE3E5C571E81BA5B3971
:10059000E92E4E8F1F21339179C0A03F2C9FF4FE8E
:1005A000B7AC6ED3862E2F2C794FDC2B561E705095
:1005B000F15852B87DB29A860131E4160CEC5E0B0C
:1005C000A65E6D37EEFC189E5EB87ECA68518C231D
:1005D0007E03CF9EAF5336F9B3AB01DE256555F0F0
:1005E0007DD3972F59B9D6A1D66DA418C715F9B3E5
:1005F00078A2620E0A1FCDAD37B428A218A3461008
:1006000093D118334788BE17EE211047156AC0A54D
:100610001C0C4D820933C305B75084BB36ECFC1467
:10062000E918BD69F360C7527BF315EA372FD3672A
:1006300004A42956A5E45A86C12594E925EB80B087
:1006400013D603E3E64D55C8D4E0E9A85994C65340
:100650005ACCE6CCCA67167F6ED8294336C139EF2B
:10066000B9763A85811DEEED3CA9AA2412443D5B82
:1006700004988EC7A9CEBF0810A1D2C7DD23986306
:10068000D48AE031AF8000F10152BA549E79F1650D
:100690007605BEFE2A81861EBB3D4D912E762A9F91
:1006A000BAEBAC734C2616D1CE53C30D9DC1E00AF4
:1006B000D3C30CAECA02D59F12E54D28D7458A2D6B
:1006C000CB5C05B7634B248BE231AD1DCF66CD7C8F
:1006D0007B6A38505A6C5929BE206CF81CED67476C
:1006E0008ECAD76D10A42CAD6B7BCFDD79FB54B0D7
:1006F000407DCC38072E2755140001DA6A697A1537
:10070000BC7B358186E8259A8768F206C5090A34DC
:1007100075BFFFEAD5B15B0103D3389E24EEC583D4
:10072000A05A1D15947850912310E179492FB225D4
:1007300097FA298F142A55663A72CE0D5AC387D379
:100740009341F8020527D9A49CD7EEFFD13DCB7782
:10075000DD9B37B4298FFBE5EA18E739A6E384B8B7
:10076000E81AB8CE38ACCC7DDA75448B330FA77558
:100770008243F9A6EBF4130630A4BA54459D2CAD80
:10078000D4FA05B74E9DC91A271EA89CA78BABC2E9
:100790008020C14DF8F481AB4DB2C2EBA2C2C6B706
:1007A0005E87354286C380D7A7A89FB1A4928BEA03
:1007B000CD852B1EFB0F6C123E789423FBE75D98D2
:1007C000CAD3484DF223A89F99E89EC0196DFBBE7D
:1007D0009ACCE81A0F1A6AE96FEE6EDA94B9AE8510
:1007E0007ADF852F123DC7B37ECE40919007DB653F
:1007F000E8EA93E9840925A9D18168E3D00D1A7B41
:1008000096EB222CBEF569547223476C7278FDBBBF
:100810009382E4329834A5F1FBB9E992B1F914ADB1
:100820007A11862B2C18AD3E007D32C3BDC8CCD4C6
:10083000BA646731B902D8B9B519858CC232CE977E
:10084000466A9CB9D57046A039EA6665EAAD04BF30
:100850009DDD7B7EE1346B332D78C2CD9F61EAF460
:100860003AFCEBBE7AB574BA67AE79D68E3238737D
:1008700004C0094B472F33AE4DB914F4EA81068DFD
:100880000A371BB2FE4E3E7B7A2E41CD5735966E0F
:10089000E19FF48493173A1888459425238C6AD0F5
:1008A000498538A2CEABF9B3FA386633C158631A1A
:1008B000E81C93F376389F028215358123742EE766
:1008C000590172A5D938ECC4AE76FBA2A6EB2D5E19
:1008D0006CF2A3B783C5297216709E66FAE9BD8CC7
:1008E00049848022C25ED9C783DA3E9B2B375F1EC4
:1008F000DA6D80632AA873C66BB4D5B6390BFD7464
:100900002D00C27C1B91F8433D5AB2376D3F60C148
:1009100065A8E794AF567D197910A2A7E915364C62
:100920000C5E3DCB39BA5AFEDB6DAAC20C1B703A85
:100930007321AF8C2E7C6CBF1969B180BFD475BD9B
:10094000A092C27689270C1DE0C1169B2E3DAFE018
:100950006F586AF225BA84A52F5F1712D227DEE8F6
:10096000D4CF8AB386DC435A59E3C6EDD1341AC0DA
:10097000A41E2EB95AB62CDAFB6093D2A1F5993693
:10098000698EAE6D9410FD6B8103F9A0B66C361ABA
:1009900031B53794544FD968D00F9982224649C453
:1009A000A9B93D29E0E71E172EDB2FBDBEC3157F79
:1009B000DEDD3F16F6CC0C6F4F83A19B64113F44E4
:1009C000751F82751FD11CBFA40B85B0AECF04412B
:1009D0007100DD6B159B0E340EB919D8D2FB9C6EDD
:1009E000164C22A47C75B24C9FFA9FB5292C12514B
:1009F0002830FBD69846355B729F111677C2729FDE
:100A0000133735448E3DFEBA156913072E5D2973E1
:100A100041E18087CFBF1C7D9A94817E3CBA8E5B7A
:100A20007A74BC7C8F1E9350E71E2801A3771B634A
:100A30006F1EFBBA3A34E32EE85C79425EBFECBF2E
:100A4000A4481B7B372ADEBE5D313BCC59023EAE4B
:100A50008F1EA986B81DFB46A7FC0A35C48958C05D
:100A600062527FDF0954EFA5B9800074A8C7451909
:100A7000C0A1CD0F3929645099F3A6B930F6561AA2
:100A8000F463DB01B9A74EEB9097947FBEC8D017F3
:100A9000F45C99B80E9DAADB5D8B35F51EEE6310F4
:100AA000C5A2533F67DC01F976E939543ECE8C5735
:100AB0003141C639AD6EE8119BE01CE70A473F059E
:100AC0006D5C43E45099079DBDB8C3E3E17C38D128
:100AD00076335250615A8CFBC875B9C3FD7C5F6494
:100AE0008B8E073813D78EC356DEBC0C5947D61DE4
:100AF000CC3225FD3862E31AE04E5F1EFCF3B77678
:100B0000592C166340BB71251D0FC08222A2FFBD68
:100B100029477DA2568DA16DAE0722321F1316778D
:100B2000C0829C1E1657851775A34CB9FCAFE3DA3B
:100B3000E38C8C39DEEDEC5CE48CE606760E1C95DD
:100B400058B7A45246B02F5E3036285B77EE78B99E
:100B500074681541E2638E9EBBF0630274A8BE0800
:100B6000C2A5C30F93B9E2601E31AD99D7E6EB96EB
:100B7000B72F7F77B7D32B774715DD34CD9811A8E2
:100B80004FB92991A52677CFF5A599F24CE012E44B
:100B900040EA731DFA7A92649E1DB43F1969B364EA
:100BA000127521508001BC2A51D58C3887CCFFDDCD
:100BB000F9E1E28AD18941C051F87CF4776BEB719D
:100BC000801A0C69C5AAE3255C84946AE4676A18F4
:100BD0008EB88D80AB2CF2E663C9542AD62EBFDDC9
:100BE00019B0E227ADB9F043E529B1E042E72DD8CD
:100BF00032E64E1EBEDF1D99B0C3E54812A6CE1EDA
:100C0000BEDF3CFA570D98B2C7ED39F06246EF5C93
:100C10001BB4CBF56833C5E950036548F34508922A
:100C2000876D5813A4CA16AEDE3EFE7E5F3CFA57AF
:100C30002CDA178D797062460E9EBEFE5F1D99916B
:100C4000816140E344EB540B7549F141006325A9F0
:100C5000B1C10082866F3DF85305887345087364FF
:100C60004AF76C5A17ACDA178D795120C2E72DD8A4
:100C700013A4CAF74D1893856931E023C40A776C31
:100C80005A36CFFD5911818082868E7F7C5B34EA93
:100C9000562EBFFC7A764FFD5930E246EF5C3AD7CC
:100CA0000D795120A3A5C8F3642BB5E852078C9A9F
:100CB000978D98B2C70C7B744BF56852076D39F06D
:100CC0006227ADD81385887345E95003848A776C11
:100CD0005A178D9893858892A6AFDC3AD70D98B2B3
:100CE000E62FDC1BB4CBF56852076D39D101806368
:100CF00044EB35C9F16042068E9EBEFE7E7E5F1DCE
:100D000099B0E246EF5C1B95A8D226CEFF5D19B0E4
:100D1000E2460E7F5D38F2470C7B744BF568522635
:100D2000CEFF7C7A572CBBD5099083846B542AB7AD
:100D3000CDF951018082868E7F5D38F2470C9A97FB
:100D4000ACDA178D7951016140E344EB540B7568BF
:100D500033C5087345E931E023C4EB35E833C5E911
:100D600031C1E14002868E7F7C7A766E3FDD19B01C
:100D7000E2460E9E9FBCDB15A8D2076D39F043E515
:100D800029B1E023A5C812A6CE1E9FBCFA766E3FFD
:100D9000FC5B34EA560F9CBAD70D7951018063256C
:100DA000C812876D39F06246EF3DD930E227ADD8E1
:100DB00032E64EFF7C7A766E5E1FBCDB15A8D2262B
:100DC000CE1E9F9D9991A0C2E72DD8138569502210
:100DD000A7CC1AB6CF1CBAF66E5E3EDF1DB8D32480
:100DE000ABD42AD60F7D5911A0C2E74C1A978D9823
:100DF00093A4CAF76C5A17ACBBF46A560F9CBAD7C7
:100E00000D9893A4CAF76C3BD509716042066F3DFB
:100E1000D930C3048A968F7D785324CAF74D18B20F
:100E2000E64EFF5D38D305695003848A968F9C9BFC
:100E3000B4EA37EC5A17ACBBF46A37CDF97043E526
:100E400048F3450892878C7B744BF549F141E140AA
:100E500002866F3DD91181614002866F3DF85324AF
:100E6000CA16AEDE3EDF1D9991A0A3C4EB35E85251
:100E7000078C7B746A37CDF95120C2068E7F7C7A4D
:100E8000570D795120C2068E7F5D19B0C3E529D078
:100E900022A7CCFB5528B3C5E95022A7CC1AB6CF60
:100EA0001C9BB4EA562EBFDD19B0E246EF5C3AD780
:100EB0000D79706227ADD813A4ABD42AB7EC5A17BA
:100EC0008D797043048A774DF9706227CC1AB6EE9B
:100ED0003FDD38F2470C7B5528D2078C9AB6CF1CE1
:100EE0009B9589716042E72DD813858892A6CE1E06
:100EF000BEFE7E7E7E7E7E7E5F3CDB34EA562EDE4C
:100F00001FBCFA764F1C9B9589716023A5C8F364BA
:100F10004A16AEBFFC7A766E3FDD1991A0A3C40AD3
:100F2000774D18B2E62FDC1B95A8B3C5E95022C651
:100F30000E9E9F9DB8F247ED581385695022A7ADCC
:100F4000B9D1018082868E7F5D1991818082674C44
:100F5000FB5528B3E42BD42AD62EDE3EFE5F1DB807
:100F6000D324ABB5E85226AFBDD930C3046B542AA5
:100F7000B7CDF97043E54812A6AFDC1BB4CB148B98
:100F8000754910836529B1C1006344EB540B948B00
:100F9000756833C5E931E042068E7F7C7A570D795A
:100FA0007062460E9E9F9DB8D3056931C1E121A1B3
:100FB000C002672DD813A4CA168F7D7853056950D7
:100FC00003654812876D39F043E54812878C9A977C
:100FD0008D795120C2066F5C3AF66E3FDD19B0C3C1
:100FE000E529B1C1006325A9B1E042E72DB9D120BF
:100FF000A3C4EB542AD60F7D7872662FDC3AF64FE5
:101000001CBAF66E3FFC5B1589716023A5C8128778
:101010006D5832C70C9A978D98B2E64E1E9F9D99D7
:10102000B0E246EF5C3AD70D98B2E62FBDF87247B2
:10103000ED5813A4CA168F9C9B95A8B3E42BD42A11
:10104000B7CD1893A4ABB5C91083654812876D3925
:10105000D1018082866F5C1BB4CBF56833E44A16FD
:101060008F7D785324ABB5E833E44AF76C5A17AC5C
:10107000BBD528B3C50892876D39D120A3A5C81266
:10108000A6AFDC1BB4CB14AAB7CD18938569500367
:101090006529B1C10082866F3DD930C3046B35E844
:1010A00033E42BD40B75A96BBBFF0001000060116A
:1010B0001200020000F91022002200001B1145005E
:1010C0002100000B110900030000F51004010309C1
:1010D00004EB100802030904DB100E0E0350007528
:1010E0000062006C006900630000000803420073A6
:1010F0000074000000040309040902220001010039
:10110000C03209040000010301020009211101009D
:10111000012245000705830306000105010902A11C
:10112000010509190129051500250195057501819C
:10113000029501750381030501093009311601800B
:1011400026FF7F36018046FF7F75109502810609D4
:10115000381581257F3581457F750895018106C049
:101160001201000200000020C0167E0400010102EE
:101170000001000001C1020011241FBECFEFDAE020
:10118000DEBFCDBF11E0A0E0B1E0ECE0FFE102C0C6
:1011900005900D92A230B107D9F721E0A2E0B1E0AD
:1011A00001C01D92A330B207E1F703D0ADC60C9485
:1011B0000000CF93DF93CDB7DEB72C970FB6F8942E
:1011C000DEBF0FBECDBF80E880936100109261004A
:1011D0008BB18F638BB987B18F7387B988B1806CFE
:1011E00088B9569A84B1806684B9579A2D9A2E9AF6
:1011F0005F9A85E5809369001DBA8FE08CBB89B149
:1012000080958F73F82E2FEF30E782E02150304029
:101210008040E1F700C000004A9902C00C94003FF2
:1012200084B1876084B9209A289A8CE58CBD9FEFA1
:10123000E0E7F2E09150E040F040E1F700C000004C
:101240004B9B2AC34C992CC38FE023E02A83289A16
:10125000EFEDFEE23197F1F700C0000028989BEB1C
:101260009EBD0DB407FEFDCF96EB9EBD0DB407FEEF
:10127000FDCFEFECF2E03197F1F700C00000289AC3
:10128000FFEF25EA3EE0F15020403040E1F700C09A
:101290000000289895ED9A95F1F70000289AE5ED61
:1012A000EA95F1F7000028989AEB9EBD0DB407FE71
:1012B000FDCF9AE59EBD0DB407FEFDCFEFECF2E049
:1012C0003197F1F700C00000289AFFEF20E732E0E5
:1012D000F15020403040E1F700C00000289892E033
:1012E0009EBD0DB407FEFDCFEFE7F2E03197F1F7B9
:1012F00000C000001EBC0DB407FEFDCF9EB5FAE68F
:10130000FA95F1F700C093E09EBD0DB407FEFDCF46
:10131000EFE7F2E03197F1F700C000001EBC0DB41A
:1013200007FEFDCF9EB5FAE6FA95F1F700C094E00E
:101330009EBD0DB407FEFDCFEFE7F2E03197F1F768
:1013400000C000001EBC0DB407FEFDCF9EB5FAE63E
:10135000FA95F1F700C095E09EBD0DB407FEFDCFF4
:10136000EFE7F2E03197F1F700C000001EBC0DB4CA
:1013700007FEFDCF9EB5FAE6FA95F1F700C096E0BC
:101380009EBD0DB407FEFDCFEFE7F2E03197F1F718
:1013900000C000001EBC0DB407FEFDCF9EB5FAE6EE
:1013A000FA95F1F700C090E99EBD0DB407FEFDCFA0
:1013B0001EBC0DB407FEFDCFEFECF2E03197F1F764
:1013C00000C0000093E99EBD0DB407FEFDCF9DE176
:1013D0009EBD0DB407FEFDCFEFECF2E03197F1F7C3
:1013E00000C00000289AEFE3FCE93197F1F700C054
:1013F0000000289893E99EBD0DB407FEFDCF98E14B
:101400009EBD0DB407FEFDCFEFECF2E03197F1F792
:1014100000C0000092EE9EBD0DB407FEFDCFECEAC9
:10142000F0E025E52A95F1F7000094919EBD0DB4FA
:1014300007FEFDCF319630E1EA3AF30791F790E6E7
:101440009A95F1F7289AEFE1F3E03197F1F700C0B0
:101450000000289890E99EBD0DB407FEFDCF1EBC8C
:101460000DB407FEFDCFEFECF2E03197F1F700C0CD
:1014700000009DE89EBD0DB407FEFDCF1EBC0DB45F
:1014800007FEFDCFEFECF2E03197F1F700C000006E
:1014900091E99EBD0DB407FEFDCF1EBC0DB407FE45
:1014A000FDCFEFECF2E03197F1F700C000009FE8CC
:1014B0009EBD0DB407FEFDCF8EBD0DB407FEFDCF62
:1014C0008FEC92E00197F1F700C0000083EE8EBD33
:1014D0000DB407FEFDCF82E08EBD0DB407FEFDCF3B
:1014E000EFECF2E03197F1F700C000008BEA8EBD1F
:1014F0000DB407FEFDCF80E18EBD0DB407FEFDCF1C
:101500008FEC92E00197F1F700C000008CEA8EBDED
:101510000DB407FEFDCF8AE08EBD0DB407FEFDCFF2
:10152000EFECF2E03197F1F700C00000289A8FE16C
:1015300093E00197F1F700C00000289882EC8EBD7F
:101540000DB407FEFDCF1EBC0DB407FEFDCFEFECC2
:10155000F2E03197F1F700C00000289A1AD230D299
:101560008823E9F3FFEF23E436E1F15020403040D7
:10157000E1F700C0000082E084BD85BD8CE787BD37
:10158000F89418861F821B821C821D821E8200E036
:1015900019861A86412C10E092E09983712C812CD7
:1015A000912CE42C462C6F2CF12CFC86FE2CEC8527
:1015B000EE2309F45BC18C85A99BFECF8C87A99A89
:1015C0002981223009F466C1233009F4B8C12430DE
:1015D00009F0D5C18FEF898360E070E088E791E47E
:1015E000D9D370E080E090E003D420E030E040E028
:1015F0005FE36CD3CFD3E62E60E070E080E09FE342
:10160000C9D370E080E090E0F3D320E030E040E028
:101610005FE35CD3BFD36B87698162956F7070E0C5
:1016200080E090E0E5D320E030E040E05FE34ED39F
:10163000B1D370E080E090E0DBD320E030E040E028
:101640005FE344D3A7D321E02E0D9B859F5F81E00C
:10165000860FEE2009F42CC19394F0E19F1609F453
:1016600088C1E91408F086C1921608F021C1EB8503
:10167000EE2309F41BC1839420E1821609F47CC196
:10168000FB85F81508F079C1891608F00FC16623AB
:1016900009F40AC1739430E1731609F467C1671540
:1016A00008F065C1781608F0FFC0289820E52EBD27
:1016B0008C850DB407FEFDCF8C873AEB3A95F1F798
:1016C00000C01EBC8C850DB407FEFDCF8C871EBCF0
:1016D0008C850DB407FEFDCF8C871EBC8C850DB4A8
:1016E00007FEFDCF8C878EB5C82E1EBC8C850DB431
:1016F00007FEFDCF8C878EB5D82E1EBC8C850DB411
:1017000007FEFDCF8C878EB5A82E1EBC8C850DB430
:1017100007FEFDCF8C878EB5B82E289A86B186FB42
:10172000882780F996B1991F9927991F891709F47D
:1017300009C18987E12C99B18CB380958063892395
:10174000EFE0ECBB582F517060FED7C080FFD5C0D2
:10175000FE81FF5FFE8351E0F03208F050E061FE51
:10176000C6C081FFC4C03D813F5F3D83303208F475
:10177000526062FEB6C082FFB4C09C819F5F9C83B2
:10178000903208F4546063FEA6C083FFA4C0EB81CE
:10179000EF5FEB83E03208F4586064FE96C084FF8C
:1017A00094C0FF81FF5FFF83F03208F4506165FE53
:1017B00081C085FF7FC028852F5F2887203208F4ED
:1017C00050623A81313009F47DC0323009F4B4C03E
:1017D00035E0398378945B87F3D08823E9F35B8520
:1017E000F894452F4F71242F30E0862D8F7190E0B3
:1017F0002817390709F48DC083E08093E9008091B0
:10180000EE0080FF7EC08091E80084608093E80055
:101810009C858091E80082FDFCCF9C87C201232D2E
:10182000322D142B8C0D9D1D2C012A0D3B1D322EAB
:10183000232E0E0D1F1509F48EC01093F100809316
:10184000F1009093F1002093F1003093F1000093A8
:10185000F1009AE39093E800EC85EF5FEC87E830C5
:1018600009F467C0652EEC85E111A5CE8091E100F9
:101870008B7F8093E1009C858091E10082FFFCCF0B
:101880009C8783B5816083BD16BCA99A29812230CB
:1018900009F09ACE1982A0CE83E032E03A83D7CC09
:1018A00087E091E09A83D3CC5F9AFFCE2E9AEFCE59
:1018B0002D9ADDCE80958072582B18863A81313072
:1018C00009F083CF22E0298385CF982F90959071DE
:1018D000592B1F826CCF982F90959870592B1B8293
:1018E0005CCF982F90959470592B1C824CCF982FD9
:1018F00090959270592B1D823CCF21E052271E8279
:101900002ECFF12E00E020E030E080E090E010E00B
:1019100088CFC114D10409F06FCFA114B10409F02C
:101920006BCFE11069CFEC85EF5FEC87E83009F011
:1019300099CFEF2C652E38CE93E099834BCF3CE3C3
:1019400039834ACE9A85891711F1E984E826EE0C8D
:10195000EA948A87F0CE009709F06FCF2115310500
:1019600009F06BCF002309F477CF67CF712C5F9814
:1019700099CE912C2D9878CE812C2E9885CE80E111
:1019800091E027E06FE01B8636E0E32E65CEE12C88
:10199000D2CE81E08093D70080EA8093D80082E1A4
:1019A00089BD09B400FEFDCF80E98093D800109274
:1019B000E0001092020188E08093E200789408959C
:1019C0008091020108951F920F920FB60F92112479
:1019D0008F938091E1001092E10083FF0FC010927D
:1019E000E90081E08093EB001092EC0082E28093AA
:1019F000ED0088E08093F000109202018F910F902B
:101A00000FBE0F901F9018951F920F920FB60F9256
:101A100011242F933F934F935F936F937F938F93F3
:101A20009F93AF93BF93CF93EF93FF931092E900EF
:101A30008091E80083FF40C06091F1008091F10047
:101A40002091F1009091F10030E0392B4091F100AC
:101A50009091F10050E0592B7091F100C091F1008C
:101A600092EF9093E8008630D1F0853009F4E0C021
:101A70008930B9F1883009F45DC08111B2C080911C
:101A8000E80080FFFCCF623809F415C180E0809344
:101A9000F1001092F1008EEF8093E80010C067E033
:101AA0008AEA90E1FC01A591B4912A173B0709F459
:101AB00056C007966150B1F781E28093EB00FF9129
:101AC000EF91CF91BF91AF919F918F917F916F9146
:101AD0005F914F913F912F910F900FBE0F901F90EC
:101AE000189561112AC0209302018EEF8093E800BF
:101AF00081E022E731E18093E900A9014F5F5F4F68
:101B0000F90194919093EB00992309F4D2C0FA0162
:101B100044914093EC003196E4912D5F3F4FE09368
:101B2000ED008F5F853039F78EE18093EA001092E7
:101B3000EA00C5CF603809F486C0452B09F0BCCF58
:101B4000613A09F491C0613209F0B6CF8B3009F0E7
:101B5000B3CF209300018EEF8093E800B0CFFC015B
:101B60003296A591B4914A175B0709F0A2CFFC0108
:101B7000349645915491FC0136962491872F90E03C
:101B80009C2B8F3F910511F008F06BC0821708F471
:101B900066C06EEF8091E800982F9570D9F382FDB2
:101BA0008ECF322F2132C0F030E2FA01832F949190
:101BB0009093F100815031968111F9CF8FEF830F0F
:101BC00090E00196480F591F231B6093E8002111F4
:101BD000E1CF3032F9F273CF2111E7CF6093E80003
:101BE0006ECF982F9D7F913009F0A7CF623009F01A
:101BF000A4CF232B09F060CF4F779FEF940F943041
:101C000008F05ACF9EEF9093E8004093E9008330AC
:101C100009F452CF89E18093EB0081E090E001C0AC
:101C2000880F4A95EAF78093EA001092EA0047CFBE
:101C30008EEF8093E8008091E80080FFFCCF206861
:101C40002093E3003CCF8091E80080FFFCCF80919F
:101C500002018093F1008EEF8093E80030CF282FAF
:101C600098CF8FEF90E092CF813079F0833009F0F8
:101C700023CF8091E80080FFFCCF8091000180930A
:101C8000F1008EEF8093E8001ACF8091E80080FF8A
:101C9000FCCF1092F1001092F1001092F10010921E
:101CA000F1001092F1001092F1008EEF8093E800A5
:101CB00006CF9A0136CF4093E9008091EB0085FB77
:101CC000882780F91092E900E2CE5058BB27AA2756
:101CD0000ED0E0C0D1D030F0D6D020F031F49F3F0C
:101CE00011F41EF4C6C00EF4E095E7FBBCC0E92F6A
:101CF000E2D080F3BA17620773078407950718F0DC
:101D000071F49EF5FAC00EF4E0950B2EBA2FA02DBB
:101D10000B01B90190010C01CA01A0011124FF2798
:101D2000591B99F0593F50F4503E68F11A16F04093
:101D3000A22F232F342F4427585FF3CF4695379592
:101D40002795A795F0405395C9F77EF41F16BA0B57
:101D5000620B730B840BBAF09150A1F0FF0FBB1F05
:101D6000661F771F881FC2F70EC0BA0F621F731F4E
:101D7000841F48F4879577956795B795F7959E3FAB
:101D800008F0B3CF9395880F08F09927EE0F979539
:101D90008795089598D088F09F5790F0B92F99278C
:101DA000B751A0F0D1F0660F771F881F991F1AF066
:101DB000BA95C9F712C0B13081F09FD0B1E0089553
:101DC0009CC0672F782F8827B85F39F0B93FCCF3D4
:101DD000869577956795B395D9F73EF4909580955C
:101DE000709561957F4F8F4F9F4F0895E89409C07C
:101DF00097FB3EF490958095709561957F4F8F4F3E
:101E00009F4F9923A9F0F92F96E9BB279395F69553
:101E1000879577956795B795F111F8CFFAF4BB0FD1
:101E200011F460FF1BC06F5F7F4F8F4F9F4F16C035
:101E3000882311F096E911C0772321F09EE8872FBF
:101E4000762F05C0662371F096E8862F70E060E07B
:101E50002AF09A95660F771F881FDAF7880F9695F4
:101E6000879597F9089597F99F6780E870E060E09B
:101E700008959FEF80EC089500240A941616170623
:101E800018060906089500240A941216130614066B
:101E900005060895092E0394000C11F4882352F0CE
:101EA000BB0F40F4BF2B11F460FF04C06F5F7F4F86
:101EB0008F4F9F4F089557FD9058440F551F59F06D
:101EC0005F3F71F04795880F97FB991F61F09F3F27
:101ED00079F087950895121613061406551FF2CF50
:101EE0004695F1DF08C0161617061806991FF1CFA0
:101EF00086957105610508940895E894BB276627C7
:0C1F00007727CB0197F90895F894FFCFE4
:021F0C000100D2
:00000001FF
